:020000040800F2
:10000000104D0020B50200085D0F0008D90E000851
:10001000590F0008150B0008F51800080000000033
:100020000000000000000000000000001D020008A9
:10003000C90200080000000061020008191200084F
:10004000CF020008CF020008CF020008CF0200084C
:10005000CF020008CF020008CF020008CF0200083C
:10006000CF020008CF020008CF020008CF0200082C
:10007000CF020008CF020008CF020008CF0200081C
:10008000CF020008CF020008CF020008CF0200080C
:10009000CF020008CF020008CF020008CF020008FC
:1000A000CF020008CF020008CF020008CF020008EC
:1000B000CF02000881120008CF020008CF0200081A
:1000C000CF020008CF020008CF020008CF020008CC
:1000D000CF020008F51300089D1400080915000858
:1000E000CF020008CF020008CF020008CF020008AC
:1000F000CF020008CF020008CF020008CF0200089C
:10010000CF020008CF020008CF020008CF0200088B
:10011000CF020008CF020008CF020008CF0200087B
:10012000CF020008CF020008CF020008CF0200086B
:1001300000F002F800F062F80AA090E8000C824497
:100140008344AAF10107DA4501D100F057F8AFF274
:10015000090EBAE80F0013F0010F18BFFB1A43F0A5
:1001600001031847104F0000304F00000A444FF0C1
:10017000000C10F8013B13F0070408BF10F8014B06
:100180001D1108BF10F8015B641E05D010F8016B4B
:10019000641E01F8016BF9D113F0080F1EBF10F8AF
:1001A000014BAD1C0C1B09D16D1E58BF01F801CBD2
:1001B000FAD505E014F8016B01F8016B6D1EF9D555
:1001C0009142D6D37047000000230024002500266A
:1001D000103A28BF78C1FBD8520728BF30C148BFAA
:1001E0000B607047642900F0BD80732900F0DC8249
:1001F000002070471FB51FBD10B510BD00F020FBDB
:100200001146FFF7F7FF01F015FD00F03EFB03B4C8
:10021000FFF7F2FF03BC01F076FB0000224B1968E8
:100220000868B0E8F00F80F30988BFF36F8F4FF0D4
:10023000000080F311884EF00D0E704700000000A2
:1002400006480068006880F3088862B661B6BFF3AC
:100250004F8FBFF36F8F00DF00BF00BF08ED00E0DE
:10026000EFF30980BFF36F8F0F4B1A6820E9F00F8F
:10027000106008B54FF0500080F31188BFF34F8F26
:10028000BFF36F8F03F0E2F94FF0000080F31188A5
:10029000BDE8084019680868B0E8F00F80F30988E5
:1002A000BFF36F8F704700BFE4000020EFF30580BD
:1002B000704700000948804709480047FEE7FEE70D
:1002C000FEE7FEE7FEE7FEE7FEE7FEE7FEE7FEE706
:1002D00004480549054A064B7047000021120008F2
:1002E0003101000810470020104D00201049002067
:1002F00010490020704700000FB4044910B503AA4C
:10030000029800F055FA10BC5DF814FB9000002034
:1003100070B50C460546012A05D02878800600D520
:10032000EA69002302E0012305E05B1C934202D24C
:10033000E05C0028F9D1A869E618C01AA861286A0B
:10034000184428622846AFF3008004E0D5E9012173
:1003500014F8010B9047B442F8D32846AFF300805D
:1003600070BD00002DE9F041064600241068752993
:10037000314616A510D0AFF30080002802DA4042C3
:1003800013A507E031688A0701D512A502E04907E5
:1003900004D511A5012401E0AFF3008000210A2259
:1003A00006F1240709E0B0FBF2FCB0FBF2F302FB1C
:1003B0001C00303078541846491C0028F3D12346DD
:1003C0002A463046BDE8F04100F06AB9000000005E
:1003D0002D0000002B000000200000002DE9F05F40
:1003E000894604464FF0000ADFF874B1FB44C0F8B8
:1003F00020A02046E1688847002874D0252806D030
:10040000D4E901219047206A401C2062F1E70026D0
:100410005F462046E16888472028054607DB312DE6
:1004200005D2781910F8200C08B10643F1E7B0079F
:1004300001D526F00406C4F81CA00027C4F818A0B3
:100440002A2D09D0284601F057FA38B304EB870863
:10045000303DC8F8185019E059F8041B204604EB49
:1004600087029161E1688847012F054618D1E0694C
:10047000002820DA26F020061DE0D8F8180000EB4E
:10048000800005EB40003038C8F818002046E168CD
:100490008847054601F030FA0028EED1012F0AD036
:1004A0002E2D08D12046E16888477F1C0546022F83
:1004B00046F02006C4DBA069002803DA404246F07B
:1004C0000106A061F00701D026F010066C2D0BD0BC
:1004D000682D09D04C2D39D06A2D35D0742D35D0EA
:1004E0007A2D33D016E038E0E1682F462046884761
:1004F000B842054609D16C2F26D04FF48060E168E0
:10050000064320468847054604E06C2F1AD04FF476
:10051000807006430DB3A5F14100192802D820359B
:1005200046F400664A462946204626604E46FFF7B6
:1005300059FE80B101280BD0F61D26F0070000F10E
:10054000080956E74020E4E78020D8E70020D6E7F6
:1005500006F104094DE7284652E7206ABDE8F09FFE
:10056000704C0000421E12F8013F002BFBD111F825
:10057000013B002B02F8013BF9D17047032A40F2FE
:10058000308010F0030C00F0158011F8013BBCF135
:10059000020F624498BF11F801CB00F8013B38BF4D
:1005A00011F8013BA2F1040298BF00F801CB38BF5B
:1005B00000F8013B11F0030300F00C81083AC0F091
:1005C000088051F8043B083A51F804CBA0E8081021
:1005D000F5E7121D5CBF51F8043B40F8043BAFF354
:1005E0000080D20724BF11F8013B11F801CB48BFAE
:1005F00011F8012B24BF00F8013B00F801CB48BFE4
:1006000000F8012B70474FF000020429C0F012805F
:1006100010F0030C00F01B80CCF1040CBCF1020FB5
:1006200018BF00F8012BA8BF20F8022BA1EB0C018A
:1006300000F00DB85FEAC17C24BF00F8012B00F880
:10064000012B48BF00F8012B70474FF0000200B5A6
:10065000134694469646203922BFA0E80C50A0E8E5
:100660000C50B1F12001BFF4F7AF090728BFA0E893
:100670000C5048BF0CC05DF804EB890028BF40F85F
:10068000042B08BF704748BF20F8022B11F0804FA1
:1006900018BF00F8012B70477047704770477047CC
:1006A0002DE9F0470D4699469246044600F124088C
:1006B0000168880604D5E06921F01001216000E09E
:1006C0000120A84201DD471B00E00027A1697A193B
:1006D00002EB0900081AA0612078C00602D4204667
:1006E000AFF30080002608E0D4E901211AF80600E3
:1006F0009047206A401C761C20624E45F4DB20782F
:10070000C0060AD52046AFF3008006E0D4E90121F7
:1007100030209047206A401C2062381EA7F1010754
:10072000F4DC07E0D4E9012118F805009047206ABD
:10073000401C2062281EA5F10105F3DC2046AFF322
:1007400000802078000602D50220BDE8F087012055
:10075000FBE7000001694A1C02610878704700B598
:100760008FB0CDE901310021059105497944CDE9EA
:10077000031011466846FFF731FE0FB000BD0000C0
:10078000E5FFFFFF10B5436913B1AFF3008001E04F
:10079000FFF7BEFD012010BD127800F124010A70A0
:1007A00000224A700122EDE711684FF0FF32E9E7BD
:1007B000074B70B50D467B44FFF7D1FF0446284632
:1007C00000F03AF810B14FF0FF3070BD204670BD18
:1007D0002712000010B5203AC0F00B80B1E8185085
:1007E000203AA0E81850B1E81850A0E81850BFF41B
:1007F000F5AF5FEA027C24BFB1E81850A0E81850BA
:1008000044BF18C918C0BDE810405FEA827C24BF0D
:1008100051F8043B40F8043B08BF7047D20728BF9B
:1008200031F8023B48BF11F8012B28BF20F8023BEA
:1008300048BF00F8012B7047007B00F08000704734
:10084000754600F02BF8AE4605006946534620F089
:100850000700854618B020B5FFF73AFDBDE82040F7
:100860004FF000064FF000074FF000084FF0000B6C
:1008700021F00701AC46ACE8C009ACE8C009ACE81F
:10088000C009ACE8C0098D46704710B50446AFF307
:1008900000802046BDE81040FFF7B9BC0048704713
:1008A000AC46002021B1826842F00102826003E080
:1008B000826822F001028260704721B1826842F4AE
:1008C0008072826003E0826822F4807282607047E6
:1008D000014600208A6802F004020AB1012000E00B
:1008E0000020704730B502460020002350680F4CAE
:1008F00020400D790C6844EA05242043506090683C
:100900000B4C2040D1E902542C434D7944EA450474
:1009100020439060D06A20F470000C7C641EE4B226
:10092000234340EA0350D06230BD0000FFFEF0FFD9
:10093000FDF7F1FFF0B504460D4600200021092D1A
:1009400011DDE068A5F10A0606EB4607072606FA60
:1009500007F18843A5F10A0606EB460603FA06F1FD
:100960000843E0600CE0206905EB4507072606FA1E
:1009700007F1884305EB450603FA06F108432061B9
:10098000072A0FDA606B561E06EB86071F2606FA4B
:1009900007F18843561E06EB860605FA06F1084362
:1009A000606322E00D2A0FDA206BD61F06EB860764
:1009B0001F2606FA07F18843D61F06EB860605FABE
:1009C00006F10843206310E0E06AA2F10D0606EB91
:1009D00086071F2606FA07F18843A2F10D0606EBEB
:1009E000860605FA06F10843E062F0BD21B182688F
:1009F00042F4A002826003E0826822F4A0028260D6
:100A00007047816841F004018160704708B5012199
:100A1000082000F013FB0120ADF8000000208DF845
:100A200003006946014800F07FF908BD000C014051
:100A300010B5FFF7EBFF00F001F810BD00B591B065
:100A40000121084600F0DAFA2F4800F071F82F482B
:100A500006902F4807900020089001200990002060
:100A60000A9080200B9040000C9080000D90202078
:100A70000E9000020F900020109006A9224800F06E
:100A8000FDF80121204800F047F80121480200F05C
:100A9000D5FA0020019001208DF808008DF809009A
:100AA0004FF4602003900020049001208DF8140082
:100AB00001A916484C38FFF715FF4FF4404000F0ED
:100AC00091FA07230122082110484C38FFF732FF22
:100AD00001210E484C38FFF7F0FE01210B484C383D
:100AE000FFF7E0FE09484C38FFF78BFF00BF0748CF
:100AF0004C38FFF7EDFE0028F9D1012103484C38AE
:100B0000FFF774FF11B000BD080002404C24014003
:100B10008400002000BFFEE721B1026842F001021C
:100B2000026004E002684FF6FE731A4002607047EC
:100B300001684FF6FE7211400160002101604160C2
:100B40008160C1604B49884208D14A4908394968E7
:100B500041F00F01474A083A51608AE04549143193
:100B6000884208D143490839496841F0F001414AB7
:100B7000083A51607DE03F492831884208D13D491B
:100B80000839496841F470613A4A083A516070E0A6
:100B900038493C31884208D136490839496841F41E
:100BA0007041344A083A516063E03249503188421A
:100BB00008D130490839496841F470212D4A083A72
:100BC000516056E02B496431884208D129490839DF
:100BD000496841F47001274A083A516049E02549C3
:100BE0007831884208D123490839496841F0706159
:100BF000204A083A51603CE01F49884206D1011F53
:100C0000096841F00F01021F116032E01A491431E6
:100C1000884208D11849091F096841F0F001164AB5
:100C2000121F116025E014492831884208D1124969
:100C3000091F096841F470610F4A121F116018E022
:100C40000D493C31884208D10B49091F096841F41C
:100C50007041094A121F11600BE007495031884268
:100C600007D10549091F096841F47021024A121F82
:100C700011607047080002400804024010B50022CD
:100C8000026847F6F0739A430C6A8B6823430C6939
:100C900023434C6923438C692343CC6923434C6A27
:100CA00023438C6A23431A430260CB6843600B687A
:100CB00083604B68C36010BD28E01549088803F0C5
:100CC00071FF81464FF08B4103F0AAFE044603F00A
:100CD0007BFE07464FF066320E4B03F041FD0546A2
:100CE00003F0C4FC0C490860086803F06DFE04467C
:100CF00000220A4B03F032FE05D80948807801280B
:100D000001D1084908701E2002F09AFAD5E70000C8
:100D10008400002066660A40880000200000F83F3A
:100D2000700100207D0000202DE9F04102460025E1
:100D30000026002000230024002791F803C00CF0B7
:100D40000F0591F803C00CF0100CBCF1000F03D09C
:100D500091F802C04CEA050591F800C0BCF1000F03
:100D600031D0146800202BE04FF0010C0CFA00F396
:100D7000B1F800C00CEA03069E4220D183004FF078
:100D80000F0C0CFA03F7BC4305FA03FC4CEA04040D
:100D900091F803C0BCF1280F06D14FF0010C0CFAFA
:100DA00000FCC2F814C00AE091F803C0BCF1480F7F
:100DB00005D14FF0010C0CFA00FCC2F810C0401C29
:100DC0000828D1D31460B1F800C0BCF1FF0F34DDA6
:100DD000546800202EE000F1080C4FF0010808FADA
:100DE0000CF3B1F800C00CEA03069E4221D1830047
:100DF0004FF00F0C0CFA03F7BC4305FA03FC4CEA66
:100E0000040491F803C0BCF1280F05D100F1080CCF
:100E100008FA0CF8C2F8148091F803C0BCF1480F2E
:100E200007D100F1080C4FF0010808FA0CF8C2F8DD
:100E30001080401C0828CED35460BDE8F08100002B
:100E4000F0B50A46002300240021002500F00046EA
:100E5000B6F1004F02D11D4EF16901E01B4E7168E1
:100E6000C0F3034583B200F44016B6F5401F08D125
:100E700021F07061154E766826F07066134F7E6023
:100E800012E000F48016B6F5801F06D1032606FA9C
:100E900005F4A14341F0706106E0460D360103FA06
:100EA00006F6B14341F0706122B1460D360103FAF6
:100EB00006F6314300F00046B6F1004F02D1034E72
:100EC000F16101E0014E7160F0BD000000000140E1
:100ED000416170470161704700BFFEE708B501211D
:100EE000052000F0ABF80121182000F0A7F801213F
:100EF0001648FFF7A5FF0220ADF8000010208DF87E
:100F0000030003208DF8020069461148FFF70CFF2B
:100F100002210F48FFF7DEFF1020ADF800008DF82A
:100F2000030003208DF8020069460A48FFF7FCFE23
:100F30002020ADF8000010208DF8030003208DF86C
:100F4000020069460348FFF7EFFE08BD00023000CB
:100F5000000801400010014000BFFEE7704700009C
:100F600070B5002100230F22C47804B3154C246807
:100F700004F4E064C4F5E064210AC1F10403CA404A
:100F8000447804FA03F184781440214309010E4C9B
:100F90000678A155047804F01F050124AC400578BB
:100FA0006D11AD0005F1E025C5F8004109E00478B8
:100FB00004F01F050124AC40044D0678761145F875
:100FC000264070BD0CED00E000E400E080E100E0B0
:100FD00002490143024A1160704700000000FA050F
:100FE0000CED00E001460020034A506820F4404028
:100FF00008435060704700000010024029B1064AC3
:1010000052690243044B5A6104E0034A5269824325
:10101000014B5A61704700000010024029B1064A96
:10102000D2690243044BDA6104E0034AD269824385
:10103000014BDA61704700000010024029B1064AF6
:1010400092690243044B9A6104E0034A9269824325
:10105000014B9A61704700000010024030B500213A
:101060000022002400232D4D6D6805F00C0121B1F4
:10107000042905D0082923D105E0294D056022E087
:10108000274D05601FE0254D6D6805F47012234D56
:101090006D6805F48034022505EB92421CB9214DA0
:1010A000554305600BE01D4D6D6805F400351DB11D
:1010B0001C4D5543056002E0194D5543056002E0A3
:1010C000174D056000BF00BF144D6D6805F0F001BD
:1010D0000909154D6B5C0568DD4045600F4D6D6875
:1010E00005F4E061090A104D6B5C4568DD408560E0
:1010F0000A4D6D6805F46051C90A0B4D6B5C45687B
:10110000DD40C560054D6D6805F44041890B074D14
:101110006B5CC568B5FBF3F5056130BD001002409E
:1011200000127A0000093D00AC000020BC00002045
:1011300010B500F001F810BD0CB500200190009032
:101140003348006840F480303149086000BF3048BF
:10115000006800F4003000900198401C0190009855
:1011600018B90198B0F5A06FF1D12948006800F4D2
:10117000003010B10120009001E0002000900098A4
:10118000012843D12348006840F01000214908603D
:101190000846006820F0030008600846006840F038
:1011A000020008601A4840681949486008464068CB
:1011B00048600846406840F48060486008464068DF
:1011C00020F47C1048600846406840F4E81048600D
:1011D0000846006840F08070086000BF0C48006856
:1011E00000F000700028F9D00948406820F00300A2
:1011F000074948600846406840F00200486000BF68
:101200000348406800F00C000828F9D10CBD00002C
:10121000001002400020024010B502F0F1FB10BDAA
:1012200010B51348006840F00100114908600846F5
:101230004068104908400E494860084600680E4959
:1012400008400B4908600846006820F480200860C8
:101250000846406820F4FE0048604FF41F00886094
:10126000FFF766FF4FF000600449086010BD000002
:10127000001002400000FFF8FFFFF6FE08ED00E05E
:1012800010B50121044800F048F818B101210248C6
:1012900000F034F810BD0000000400407FB50546A2
:1012A0000C4601210220FFF7B9FEADF80850ADF859
:1012B00004400020ADF80A00ADF8060001A90E4870
:1012C00000F046F8012211460B4800F037F81D20C7
:1012D0008DF8000000208DF8010003208DF8020039
:1012E00001208DF803006846FFF73AFE012102480D
:1012F00000F007F87FBD000000040040CA430282EE
:10130000704721B1028842F00102028004E00288A5
:101310004FF6FE731A400280704730B50246002037
:1013200000230024158A05EA0103958905EA0104D2
:1013300013B10CB1012000E0002030BD1AB1838947
:101340000B43838102E083898B43838170470000D4
:10135000002202881D4B98420ED01D4B98420BD0A4
:10136000B0F1804F08D01B4B984205D01A4B9842E1
:1013700002D01A4B984204D14FF68F731A404B8813
:101380001A43174B984207D0164B984204D04FF699
:10139000FF431A40CB881A4302808B8883850B88D1
:1013A00003850A4B98420BD0094B984208D00E4B4C
:1013B000984205D00D4B984202D00D4B984201D176
:1013C0000B7A03860123838270470000002C0140C2
:1013D000003401400004004000080040000C0040C0
:1013E0000010004000140040004001400044014053
:1013F000004801407FB524A103C9CDE9020122A123
:1014000003C9CDE90001694602A8FFF7ABF805461C
:1014100040F225511E4800F04CF910B31C4800F072
:1014200003FAC4B21B48008800F40040C8B9194848
:10143000008800F4804060B10A2C03D000201549D8
:10144000088020E01348008840F4004011490880DB
:1014500019E00D2C06D10F48008840F480400D495A
:10146000088010E00B480088C0F30D000A490C54B6
:1014700008480088401C0749088008460088C7289B
:1014800001DD002008807FBD31323334350000009B
:1014900000380140940000208602002010B540F280
:1014A0002551174800F005F9A8B1154800F0BCF91E
:1014B000C4B21448408EC0F30E0030280BDA114934
:1014C000498EC1F30E00411C0E4A528E61F30E028A
:1014D0000C494A860C5440F22441094800F0E9F8CE
:1014E00001280BD10748408E20F4004000F5004051
:1014F00004494886024800F097F9C4B210BD0000C4
:10150000004400405002002010B540F22551174819
:1015100000F0CFF8A8B1154800F086F9C4B214481D
:10152000408EC0F30E0030280BDA1149498EC1F30A
:101530000E00411C0E4A528E61F30E020C494A867F
:101540000C5440F22441094800F0B3F801280BD1B3
:101550000748408E20F4004000F5004004494886CA
:10156000024800F061F9C4B210BD0000004800401C
:10157000D401002008B527208DF8000002208DF846
:1015800001008DF8020001208DF803006846FFF786
:10159000E7FC08BD08B526208DF8000002208DF874
:1015A000010003208DF8020001208DF80300684639
:1015B000FFF7D6FC08BD21B1828942F40052828136
:1015C00004E082894DF6FF731A4082817047000063
:1015D00008B501210820FFF731FD01211020FFF798
:1015E0002DFD4FF48060ADF8000018208DF8030049
:1015F00003208DF8020069460748FFF795FB4FF47A
:101600000060ADF8000004208DF803006946024830
:10161000FFF78AFB08BD0000000C014008B501215E
:101620000420FFF70BFD01211020FFF707FD01212A
:101630002020FFF703FD0420ADF8000018208DF8EE
:10164000030003208DF8020069461148FFF76CFB88
:101650000820ADF8000004208DF8030069460C480E
:10166000FFF762FB0420ADF8000010208DF80300A6
:1016700069460848FFF758FB022001F0E1FD04210C
:101680000448FFF725FC022001F0DAFD08BD000048
:10169000000801400014014002460020B1F5007F1F
:1016A00000D100BF13880B400BB1012000E00020E7
:1016B000704770B50246002400230025002040F644
:1016C0006A16B14200D100BFC1F3421501F01F03F9
:1016D000012606FA03F3012D02D19689334006E074
:1016E000022D02D1168A334001E0968A33400C1253
:1016F000012606FA04F41688344013B10CB1012017
:1017000000E0002070BDF0B503460024002600254F
:10171000002040F66A17B94200D100BF1846C1F355
:10172000421401F01F06012707FA06F5012C01D12A
:101730000C3004E0022C01D1103000E014301AB15A
:1017400007682F43076002E00768AF430760F0BDFA
:101750002DE9F04786B005460E460024A24600BF9C
:10176000A1460027B08900B100BF2F462C8A4CF655
:10177000FF700440F08804432C82AC894EF6F310CD
:101780000440B08831890843718908430443AC811F
:10179000AC8A4FF6FF400440B0890443AC8201A8F4
:1017A000FFF75CFC1F48874202D1DDF810A001E082
:1017B000DDF80CA0A88900F4004040B10AEBCA0093
:1017C00000EB0A1031684900B0FBF1F807E00AEBC2
:1017D000CA0000EB0A1031688900B0FBF1F8642000
:1017E000B8FBF0F004012009642101FB1089A889ED
:1017F00000F4004040B1322000EBC900B0FBF1F032
:1018000000F00700044308E0322000EB09106421D7
:10181000B0FBF1F000F00F0004432C8106B0BDE8EE
:10182000F08700000038014001468888C0F30800B6
:101830007047C1F308028280704700001FB5012184
:101840008804FFF7EBFB4FF4165000900020ADF832
:101850000400ADF80600ADF80800ADF80C000C204F
:10186000ADF80A0069460B48FFF772FF012240F20B
:1018700025510848FFF747FF012240F2244105485F
:10188000FFF741FFFFF776FE01210248FFF793FEC5
:101890001FBD0000004800401FB501214804FFF7AC
:1018A000BDFB4FF4165000900020ADF80400ADF8D9
:1018B0000600ADF80800ADF80C000C20ADF80A00E9
:1018C00069460B48FFF744FF012240F225510848C2
:1018D000FFF719FF012240F224410548FFF713FFEB
:1018E000FFF758FE01210248FFF765FE1FBD00000B
:1018F0000044004000BFFEE730380A2801D2012032
:1019000070470020704700BF7047000010B50421E9
:101910000A48FFF7DFFA022001F092FC082108488C
:1019200001F08AFA022001F08BFC04210348FFF742
:10193000CFFA022001F084FC10BD00000014014029
:10194000190000200348408E6FF30E0001494886BD
:1019500070470000D401002072B60448408E6FF337
:101960000E000249488662B670470000500200200F
:1019700070B502460C46FF25FF2309E012F8010B63
:1019800080EA05010648405C80EA03050548435C9F
:10199000201EA4F10106B4B2F0D143EA052070BDC7
:1019A000604C0008604D000870B502460C46FF25EB
:1019B000FF2309E012F8010B80EA05010648405CAC
:1019C00080EA03050548435C201EA4F10106B4B279
:1019D000F0D143EA052070BD604E0008604F00085A
:1019E00000BF054A128802F04002002AF9D0C2B2B4
:1019F000014B1B1D1A8070470038014030B502466C
:101A00000020C2F30B03DCB2192C5AD2DFE804F039
:101A1000590D1115191D202326292C2F3235383B3D
:101A20003E4144474A4D50535600274C64780C8041
:101A300048E0254CA4780C8044E0234CE4780C80EA
:101A400040E0214C24790C803CE001240C8039E0FA
:101A500001240C8036E001240C8033E001240C804A
:101A600030E001240C802DE001240C802AE00124C8
:101A70000C8027E001240C8024E001240C8021E06C
:101A800001240C801EE001240C801BE001240C804A
:101A900018E001240C8015E001240C8012E00124E0
:101AA0000C800FE001240C800CE001240C8009E084
:101AB00001240C8006E001240C8003E001240C804A
:101AC00000E000BF00BF30BD7001002030B502460D
:101AD0000023C2F30B04E0B21E286FD2DFE800F04F
:101AE000940F171F262E363E464E565E666F727551
:101AF000787B7E8184878A8D8E8F909192934448E3
:101B0000C078434DAD7800EB052008607DE040488B
:101B100040793F4D2D7900EB0520086075E03C4889
:101B200080793B4DED79284408606EE03848407A72
:101B3000374D2D7A00EB0520086066E03448C07A06
:101B4000334DAD7A00EB052008605EE03048407B05
:101B50002F4D2D7B00EB0520086056E02C48C07B04
:101B60002B4DAD7B00EB052008604EE02848407C03
:101B7000274D2D7C00EB0520086046E02448C07C02
:101B8000234DAD7C00EB052008603EE02048407D01
:101B90001F4D2D7D00EB0520086036E01C48C07D00
:101BA0001B4DAD7D00EB052008602EE01848407EFF
:101BB000174D2D7E00EB0520086026E024E00D2067
:101BC000086022E00E2008601FE00F2008601CE083
:101BD0001020086019E01120086016E0122008604B
:101BE00013E01320086010E0142008600DE01520B9
:101BF00008600AE01620086007E006E005E004E05F
:101C000003E002E001E000E000BF00BF98B230BD99
:101C1000A20100200BE00648006808B9012000E09E
:101C20000020034908604FF4FA7001F009FBF2E765
:101C3000840121421CB54FF4A060FFF7C9F90020D0
:101C4000012103460A02CDE9001004A1064802F072
:101C50002DFA01F09BFC00201CBD00006D61696E37
:101C60005F7461736B0000006D1C00081CB5FFF70A
:101C700035F9FEF7DDFE01F05BF801F03DFD41F6C0
:101C80001F416320FFF70AFB4FF4FA7001F0D8FA06
:101C900000F06CF901F070F9002002210346CA013E
:101CA000CDE900101DA11F4802F000FA002002211A
:101CB0000346CA01CDE900101BA11E4802F0F6F947
:101CC000002002210346CA01CDE900101AA11F48D5
:101CD00002F0ECF9002002210346CA01CDE9001010
:101CE0001BA11F4802F0E2F90020022103468022D6
:101CF000CDE900101BA11D4802F0D8F900200321F6
:101D000003468022CDE9001019A11D4802F0CEF94A
:101D1000002001F0D1FA01F06FF91CBD736B5F7008
:101D2000726F6300552D00086C65645F7475726E88
:101D300000000000151C00087664665F726563652C
:101D40006976655F70726F63000000000D370008F0
:101D50007664665F73656E645F70726F6300000027
:101D6000E93800084745545F41444300B90C000876
:101D70006F70656E5F6672657175657279000000DF
:101D8000A51F00082DE9FC5F00200190364890F85F
:101D900003B045792846E91705EB5171CC10D846B8
:101DA00032213248FEF72FFCE91705EB5171C910BB
:101DB000A5EBC10109B1601CC4B24FF0000931E0CC
:101DC00009F10300C6B200202849885582461DE06B
:101DD0000020009069464046FFF710FE2348805DD2
:101DE000BDF8001001FA0AF108432049885508F1AE
:101DF000010000F0FF080BEB0500404502DC01206C
:101E0000019006E00AF1010000F0FF0ABAF1080FA4
:101E1000DEDB00BF0198012800D105E009F10100D7
:101E200000F0FF09A145CBDB00BF01200F4908707E
:101E3000487008468470E01CC4B221460B48FFF786
:101E400097FD0746381209490855601CC4B20F5562
:101E5000601CC1B2054801F00FF800200449087069
:101E6000FFF770FDBDE8FC9F340100203E0100201B
:101E7000040000202DE9F84300200090224890F84B
:101E80000380474632212148FEF7BDFB1E4890F8EB
:101E900005904FEA4960040E002513E000200090F1
:101EA00069463846FFF712FE0098C0F30721174A2B
:101EB000E81C11540098C1B2281D1154A81CC5B2C9
:101EC000781CC7B2A542E9DB012010490870032045
:101ED000487008468470E01CC4B221460B48FFF7E6
:101EE00047FD0646301209490855601CC4B20E551C
:101EF000601CC1B2054800F0BFFF00200449087013
:101F0000FFF720FDBDE8F883340100203E010020EA
:101F1000040000202DE9F0411148C778B846067941
:101F2000FF2E01D1012501E006B9002529464046D2
:101F300000F0A4FE002405E00948005D09490855A9
:101F4000601CC4B2072CF7DB0821064800F094FFA0
:101F5000002005490870FFF7F5FCBDE8F08100009E
:101F6000340100203E0100200400002010B50421AF
:101F70000A48FEF7AFFF022001F062F90821084885
:101F800000F05AFF022001F05BF904210348FEF73C
:101F90009FFF022001F054F910BD00000014014021
:101FA0002D00002008B519E000235A1E69460C4890
:101FB000006801F07BFD0098012805D109484078B0
:101FC00010B9012008490860009830B905484078E8
:101FD000012802D100200449086000BFE4E70000A6
:101FE0000000002070010020900122422DE9F04104
:101FF00005460E461C4807681C480068001D00F096
:1020000071FF50B91948006890F82C1001208840E1
:1020100017490968814316480160681C38B936B110
:1020200012480168091D134800F09AFF1AE07C1954
:102030000E4800684460BC4207D20C480168091D84
:102040000D48006800F072FF0CE008480168091DA7
:102050000A48006800F06AFF09480068844201D21B
:1020600007480460BDE8F081F8000020E40000208B
:10207000FC00002070460020EC000020E80000205A
:102080001401002010B5044600F076FF23480068D4
:10209000401C224908602248006840B9204804607A
:1020A0000846006801280DD100F0E6F90AE01D4855
:1020B000006838B91A480068C06AE16A884201D8E5
:1020C0001748046018480068401C1749086094F8D5
:1020D0002C100120884015490968084313490860FD
:1020E000E16A01EB8101124A02EB8100211D00F03F
:1020F00037FF00F081FF0B48006868B108480068AE
:10210000C06AE16A884207D24FF0805009490860EE
:10211000BFF34F8FBFF36F8F10BD0000F40000209E
:10212000E40000200001002010010020FC0000203D
:10213000A043002004ED00E010B500F01DFF1048A2
:102140000068D0B90F4800F0E1FE0F4800F0DEFE55
:102150000C480E4908600C480D4908600022102107
:102160000A2001F067FC064908600846006820B1B3
:1021700008A10348006801F027F800F03DFF10BDFA
:1021800028010020844600209846002020010020DD
:1021900024010020546D72510000000070B523E04E
:1021A00001F04CFA1348006808B9012000E0002053
:1021B000054602F03DF9BDB900F0DEFE0D48C068ED
:1021C000C468201D00F08EFE0B480068401E0A49BE
:1021D00008600A480068401E0849086000F00CFFCB
:1021E000204600F060F800BF044800680028D7D1FE
:1021F00070BD00005C460020F4000020F0000020CC
:1022000070B504460D46206C70B1216CE06808443E
:10221000E0606168E068884201D32068E060284699
:10222000226CE168FEF7AAF970BD2DE9F041044681
:102230000F4615464FF00008A66B206C40B9206889
:1022400060BB606802F02AF880460020606025E0EC
:102250007DB93946226CA068FEF790F9216CA06820
:102260000844A060D4E90110884217D32068A06018
:1022700014E03946226CE068FEF780F9216CE068D2
:10228000401AE0602168E068884203D2216C6068EF
:10229000401AE060022D01D106B1761E701CA063C9
:1022A0004046BDE8F08110B50446206B00F0D8FE32
:1022B000204600F0D5FE10BD0146084A126812689B
:1022C0000AB9012200E000220A600A6822B9034A22
:1022D0001268D268106800E00020704720010020DA
:1022E00030B54FF48043174800F007042CB1C01DEF
:1022F00020F00700134C041B1B1B0246124C2260EB
:102300000024114D6C60D018083820F007000F4CE5
:10231000206000240D4D2D686C600C4D2D682C60E4
:102320001146441A4C60094C24680C60084D4C68F6
:102330002C60084D4C682C604FF00044064D2C601A
:1023400030BD00004E030020C0000020C800002067
:10235000D0000020CC000020D400002000BFFFF7F8
:102360001DFF064800680128F9D94FF08050044944
:102370000860BFF34F8FBFF36F8FF0E7A0430020DB
:1023800004ED00E02DE9F04106460D46174698465B
:10239000069C0DB9246000E02760E66325640121F6
:1023A000204601F069FC0020A064BDE8F081000037
:1023B0002DE9FF5F81460F469246DDE90E6B109CCA
:1023C000AAF10100216B01EB800828F0070808F052
:1023D000070008B9012000E0002028B940F22B32A4
:1023E0001BA121A0FDF788FF002507E0795D04F11E
:1023F00034004155785D00B902E06D1C102DF5D315
:1024000000BF002143200155202E00D31F26E66285
:1024100066640020A064201D00F085FD04F1180012
:1024200000F081FD2461C6F12000A06164620020FB
:10243000E06484F8500049464046039A00F0FCFBF3
:102440002060BBF1000F01D0CBF80040BDE8FF9F3A
:102450004672656552544F535C7372635C7461736A
:102460006B732E63000000004572726F723A257321
:102470002C25640D0A00000010B5002407E004EBD1
:1024800084010F4A02EB810000F040FD641C202C07
:10249000F5D30C4800F03AFD0B4800F037FD0B482F
:1024A00000F034FD0A4800F031FD0A4800F02EFD2E
:1024B00004480949086004480849086010BD000044
:1024C000A04300202046002034460020484600203B
:1024D0005C46002070460020E8000020EC00002050
:1024E00010B50146164800E0006803688B42FBD334
:1024F0000246436813448B4204D143684C6823442A
:10250000436001460A464B6813440468A34211D154
:102510000C4C03682468A34208D04B6804686468C4
:1025200023444B6003681B680B6005E0054B1B6888
:102530000B6001E003680B60884200D0016010BDB1
:10254000C0000020C80000202DE9F04104460D46DF
:1025500016461F464FF0000865602461B5420CD84E
:10256000F01BA169884202D34FF0010811E0211D40
:102570000948006800F0DAFC0BE0BE4204D2BD421C
:1025800002D34FF0010804E0211D0448006800F068
:10259000CDFC4046BDE8F081240100202001002050
:1025A00070B5054600F0E8FCA86B08B9012400E00E
:1025B000002400F021FD204670BD70B5054600F0F6
:1025C000DBFCA86BE96B884201D1012400E0002408
:1025D00000F012FD204670BD2DE9F3410D46009834
:1025E000846C00272CB940F6CE121AA11FA0FDF76B
:1025F00083FEA06BE16B884201D2012000E0002045
:1026000028B940F6CF1213A118A0FDF775FEA06BF4
:10261000E16B88421BD294F945602A466946204600
:10262000FFF703FE0746701C60B9606A08B9012015
:1026300000E0002050B904F1240001F09DFE28B113
:10264000012703E0701C40B284F8450000BF384603
:10265000BDE8FC814672656552544F535C737263EA
:102660005C71756575652E63000000004572726FC0
:10267000723A25732C25640D0A000000F8B5054652
:102680000F4613480068C068C468201D00F02AFC8B
:10269000E069012818D1A06941192B463A46204625
:1026A000FFF752FF80B1002003462A460146009002
:1026B000204601F089FF06462EB94FF4027205A1AB
:1026C0000AA0FDF719FE00BF2046616A8847F8BDE1
:1026D000200100204672656552544F535C7372634B
:1026E0005C74696D6572732E630000004572726FD1
:1026F000723A25732C25640D0A000000F0B587B0EE
:1027000070E0039800280CDA04AE2EB940F2E722FC
:102710003AA140A0FDF7F0FDD6E90020B16890474E
:1027200000BF039800285DDB059C606908B90120A3
:1027300000E0002010B9201D00F0D4FB02A800F03A
:10274000C7F8054603980A284AD2DFE800F00905D1
:10275000072C2E4506082D2F00BF00BF00BF00BF6D
:102760000498A269811803462A462046FFF7ECFE2A
:10277000C0B12046616A8847E069012812D1002073
:1027800000900498A169421800231946204601F0E0
:102790001BFF07462FB940F2213218A11DA0FDF7FB
:1027A000ABFD00BF1DE000BF1BE000BF0498A061AF
:1027B000A06908B1012000E0002028B94FF44E7252
:1027C0000EA114A0FDF798FDA06941192B462A46D9
:1027D0002046FFF7B9FE04E0204600F041FC00E08F
:1027E00000BF00BF00231A4603A90E48006801F08D
:1027F0005DF9002885D107B0F0BD0000467265651F
:1028000052544F535C7372635C74696D6572732EBE
:10281000630000004572726F723A25732C25640DB7
:102820000A00000028010020F8B505460C4600F01B
:1028300005FF684600F04CF80646009820BB44B9F6
:10284000B54206D801F0F4FD31462846FFF716FFE1
:102850001CE03CB10E480068006808B9012000E0A7
:1028600000200446A91B22460A48006800F0C2FC6A
:1028700001F0DEFD50B94FF0805007490860BFF30A
:102880004F8FBFF36F8F01E001F0D2FDF8BD000064
:10289000240100202801002004ED00E00A49096815
:1028A000096809B9012100E0002121B14FF0FF3191
:1028B000064A116006E004490968C968C868034A05
:1028C0004168116070470000E800002014010020FA
:1028D00070B5044601F02AFC0546074800688542A9
:1028E00004D200F00BF80120206001E000202060FD
:1028F00001480560284670BD300100202DE9F843ED
:102900002DE021480068C06805681F480068C0685D
:10291000C468201D00F0E6FA2046616A8847E06935
:1029200001281CD1A0694619AE4207D9666024610E
:10293000211D1548006800F0F9FA10E00020034658
:102940002A4601460090204601F03EFE07462FB978
:1029500040F292320DA113A0FDF7CEFC00BF0A4851
:102960000068006808B9012000E000200028C8D0F5
:102970000548D0F800800F480068034908600D48FA
:10298000C0F80080BDE8F88320010020467265652C
:1029900052544F535C7372635C74696D6572732E2D
:1029A000630000004572726F723A25732C25640D26
:1029B0000A000000240100200B480068401C08B9F0
:1029C000012000E0002020B9F42208A110A0FDF7AA
:1029D00093FC00BF502080F31188BFF34F8FBFF3EB
:1029E0006F8F00BF00BFFEE7D8000020467265650C
:1029F00052544F535C706F72745C525644535C4136
:102A0000524D5F434D335C706F72742E6300000053
:102A10004572726F723A25732C25640D0A0000000E
:102A200008B500BF6846FFF747FC044620460099FA
:102A3000FFF7FAFEFFF762FEF4E770B5044600F018
:102A40009BFA94F945501AE0A06C38B10021204659
:102A5000FFF7C2FD88B100F0B7FC0EE0606A08B96C
:102A6000012000E0002038B904F1240001F084FCCA
:102A700018B100F0A9FC00E003E0681E45B2002D8B
:102A8000E2DC00BFFF2084F8450000F0B5FA00F05A
:102A900073FA94F9445010E0206908B9012000E06D
:102AA000002048B904F1100001F066FC08B100F004
:102AB0008BFC681E45B200E001E0002DECDC00BF9D
:102AC000FF2084F8440000F097FA70BD2DE9F04132
:102AD00004464FF0000800F0B1FD3E48006808B918
:102AE000FFF7FEFB3C480068204000285FD1A4B1FE
:102AF000083404F0070080B104F00700C0F10800BA
:102B0000044404F0070008B9012000E0002020B9C7
:102B1000BF2232A139A0FDF7EFFB002C47D03B4884
:102B20000068844243D83A4E3046056801E02E469C
:102B30002D686868A04202D228680028F7D125488D
:102B40000068854233D0306800F10808286830609A
:102B50006868001B102813D92F1907F0070008B95F
:102B6000012000E0002020B9EC221CA123A0FDF7E9
:102B7000C3FB6868001B78606C603846FFF7B0FCE8
:102B8000224968680968081A2049086008460068F0
:102B900020490968884203D21C4800681D49086022
:102BA0000D4968680968084368600020286001F0E2
:102BB0003FFC08F0070008B9012000E0002028B918
:102BC0004FF4967205A10DA0FDF796FB4046BDE8B7
:102BD000F0810000C8000020D40000204672656526
:102BE00052544F535C706F72745C4D656D4D616EE5
:102BF000675C686561705F342E6300004572726FB8
:102C0000723A25732C25640D0A000000CC000020C8
:102C1000C0000020D00000200648006830B10549FF
:102C2000096801F14800896C491C0160014800688D
:102C300070470000E4000020001F4FF08073036025
:102C4000001F21F001030360001F034B03601438D1
:102C50000260203870470000B92900080648007853
:102C6000032803D100200449087004E002480078DA
:102C7000401C01490870704782000020F8B50546E5
:102C80000C460026C5F30B07F8B2122841D2DFE844
:102C900000F040091417273A3B3C3D40404040407B
:102CA00040403E3F009400231A4669461B48006896
:102CB00001F03CF81A494C702CE019498C7029E05D
:102CC000012C05D11648C07810B9012015490870AB
:102CD0002CB91348C078012801D11349087019E0B4
:102CE000012C05D10E48007910B901200F49086068
:102CF00034B90B480079012802D100200B49086043
:102D000007490C7106E005E004E003E002E001E0A1
:102D100000E000BF00BF3046F8BD0000000000200A
:102D2000700100207D0000207F00002094012242DD
:102D300010B500200549087000F096F80022042123
:102D4000012000F077FE0249086010BD0400002059
:102D50000000002060E03148007806285AD2DFE801
:102D600000F0031B325053562D48408EC0F30E0026
:102D7000082800DA4FE02A480078012802D0FEF740
:102D8000E1FD48E0274826490A6802604968416039
:102D90000120224908703EE006212248FEF7E8FDA6
:102DA00004462048C0791F49897900EB0120A042E0
:102DB00003D102201949087004E0FEF7C3FD00208A
:102DC0001649087027E017484078012803D10320EE
:102DD0001249087014E013484078032803D10420F6
:102DE0000E4908700CE00F484078052802D10B49C5
:102DF000087005E00B484078062801D107490870A3
:102E000009E0FEF7BFFF06E0FFF734F803E0FFF745
:102E100081F800E000BF00BF9DE700000400002033
:102E2000D40100203401002010B5FEF795FDFEF717
:102E3000F5FBFEF731FD10BD70B505460E460024CA
:102E400005E0295D074800F03EF8601CC4B2B442BA
:102E5000F7DB00BF40210348FEF71EFC0028F9D035
:102E600070BD00000044004010B5FEF76BFDFEF79A
:102E7000AFFBFEF7E3FC10BD70B505460E4600241F
:102E800005E0295D074800F00FF8601CC4B2B442A9
:102E9000F7DB00BF40210348FEF7FEFB0028F9D016
:102EA00070BD00000048004070B504460D4629463C
:102EB0002046FEF7BEFC00BF80212046FEF7ECFB5B
:102EC0000028F9D070BD70B504460D46294620464D
:102ED000FEF7AFFC00BF80212046FEF7DDFB002897
:102EE000F9D070BD01460A69D1E901309860D1E995
:102EF000010358605068884201D188685060002002
:102F000008611068401E10601068704700F10801E9
:102F100041604FF0FF31816000F10801C160016143
:102F200000210160704700210161704710B5024621
:102F30000B685C1C0CB9106907E002F1080000E0A6
:102F40004068446824689C42FAD944684C604C68E4
:102F5000A160886041600A611468641C146010BD3F
:102F600042684A6093688B60936859609160086119
:102F700003685B1C0360704710B500BF502080F3EE
:102F80001188BFF34F8FBFF36F8F00BF0B480068EE
:102F9000401C0A4908600846006801280DD108480D
:102FA0000068C0B208B9012000E0002028B94FF441
:102FB000BD7204A10CA0FDF79FF910BDD800002040
:102FC00004ED00E04672656552544F535C706F72B9
:102FD000745C525644535C41524D5F434D335C70B8
:102FE0006F72742E630000004572726F723A25731F
:102FF0002C25640D0A00000010B50B48006828B9A4
:1030000040F2811209A112A0FDF776F90648006886
:10301000401E054908600846006820B9002080F37A
:10302000118800BF00BF10BDD80000204672656542
:1030300052544F535C706F72745C525644535C41EF
:10304000524D5F434D335C706F72742E630000000D
:103050004572726F723A25732C25640D0A000000C8
:1030600070B506463546002E35D0083D2C461A4927
:1030700060680968084008B1012000E0002028B914
:103080004FF4A07215A11DA0FDF736F9206808B90C
:10309000012000E0002028B940F241120FA117A042
:1030A000FDF72AF90C4960680968084098B1206862
:1030B00088B90949606809688843606000F0BEFA11
:1030C0001249606809680844104908602046FFF703
:1030D00007FA01F0ADF970BDD400002046726565B5
:1030E00052544F535C706F72745C4D656D4D616EE0
:1030F000675C686561705F342E6300004572726FB3
:10310000723A25732C25640D0A000000CC000020C3
:10311000064800684FF47A71B0FBF1F0401E4FF0A2
:10312000E0214861072008617047000098000020F6
:1031300070B5FDF7BBF80546102D11D305F1E02061
:1031400090F8F04310480078844201DB012000E051
:10315000002028B94FF42A720CA115A0FDF7CCF875
:103160001748006800F4E06016490968884201D8F1
:10317000012000E0002028B94FF42E7203A10CA01A
:10318000FDF7BAF870BD0000DC00002046726565EE
:1031900052544F535C706F72745C525644535C418E
:1031A000524D5F434D335C706F72742E63000000AC
:1031B0004572726F723A25732C25640D0A00000067
:1031C0000CED00E0E0000020024600200BE0084B80
:1031D00053F8303033B9064B43F8301003EBC003DB
:1031E0005A6002E0401C0A28F1D300BF704700007B
:1031F000504300202DE9F04105460E4617462C4667
:10320000FFF7BAFE94F94400401C10B9002084F87E
:10321000440094F94500401C10B9002084F8450092
:10322000FFF7EAFEA06B28B93A46314604F12400C4
:1032300000F0FCF82046FFF700FCBDE8F08100003C
:1032400070B504460025ACB10F48006808B90120EC
:1032500000E0002028B940F2CF420CA111A0FDF7F8
:103260004BF800F0EBF900212046FEF7BFFE01F01D
:10327000DFF805463DB94FF080500E490860BFF3B6
:103280004F8FBFF36F8F70BD1C01002046726565C4
:1032900052544F535C7372635C7461736B732E632F
:1032A000000000004572726F723A25732C25640D80
:1032B0000A00000004ED00E070B50546FFF75CFE73
:1032C00015B92D48006800E028460446201DFFF788
:1032D00009FE78B9E06A00EB8000284951F8200027
:1032E00040B994F82C100120884025490968814391
:1032F00023480160A06A18B104F11800FFF7F2FD3D
:1033000020480068401C1F4908601B480068844230
:1033100009D1211D1C48FFF723FE1C480068401CF2
:103320001A49086009E01A480068401E18490860F8
:103330002046FEF7B8FFFFF7B1FAFFF75DFE15482C
:103340000068C0B10C480068844214D1124800687B
:1033500008B9012000E0002028B940F265420FA121
:1033600014A0FCF7C9FF4FF0805016490860BFF366
:103370004F8FBFF36F8F70BDE4000020A04300208B
:10338000FC000020100100205C460020F00000201E
:10339000F4000020000100201C0100204672656539
:1033A00052544F535C7372635C7461736B732E631E
:1033B000000000004572726F723A25732C25640D6F
:1033C0000A00000004ED00E0012001490860704798
:1033D0000801002070B504460D462CB940F60632AF
:1033E00007A10DA0FCF788FF0F480168183120469F
:1033F000FFF79CFD01212846FEF7F8FD70BD000097
:103400004672656552544F535C7372635C746173AA
:103410006B732E63000000004572726F723A257361
:103420002C25640D0A000000E400002070B505465C
:103430000E4614462DB940F6313209A10EA0FCF714
:103440005BFF1148016818312846FFF789FD0CB170
:103450004FF0FF3621463046FEF7C8FD70BD000034
:103460004672656552544F535C7372635C7461734A
:103470006B732E63000000004572726F723A257301
:103480002C25640D0A000000E400002070B50546FC
:103490002C46002D4BD02649E06A0968C96A88424B
:1034A00045D2A06900F0004028B921480068C06AF0
:1034B000C0F12000A061E16A01EB81011D4A02EB2D
:1034C00081016069884201D1012000E0002050B3F1
:1034D000201DFFF707FD78B9E06A00EB8000154971
:1034E00051F8200040B994F82C100120884012496E
:1034F00009688143104801600D480068C06AE062B5
:1035000094F82C10012088400B49096808430A49A7
:103510000860E16A01EB8101064A02EB8100211D8E
:10352000FFF71EFD03E002480068C06AE06270BD5C
:10353000E4000020A0430020FC00002010B5044659
:103540002CB940F6C13205A10AA0FCF7D5FE0D4802
:10355000006820600C480068606010BD46726565B8
:1035600052544F535C7372635C7461736B732E635C
:10357000000000004572726F723A25732C25640DAD
:103580000A0000000C010020F80000201CB51A48B9
:1035900000210B468022CDE9001018A1194800F047
:1035A00085FD0446012C02D100F0D4FF0446012C15
:1035B00015D100BF502080F31188BFF34F8FBFF3A8
:1035C0006F8F00BF4FF0FF300F49086001200F4997
:1035D000086000200E49086000F0C2F90BE0601C92
:1035E00008B1012000E0002028B940F2847209A14E
:1035F0000EA0FCF781FE1CBD1801002049444C457B
:10360000000000005D2300081401002000010020DC
:10361000F80000204672656552544F535C73726324
:103620005C7461736B732E63000000004572726FEF
:10363000723A25732C25640D0A00000002480068C8
:10364000401C0149086070471C01002010B51B4850
:10365000006818B101201A4908602DE000201849BF
:10366000086018480068B0FA80F0C0F11F0404EB4D
:103670008400154951F8200008B1012000E0002025
:1036800028B940F6F62211A116A0FCF735FE04EB8E
:1036900084010D4A02EB810041684968416000F1F4
:1036A000080142688A4202D1416849684160416824
:1036B000C968104A116000BF10BD00001C01002045
:1036C00008010020FC000020A04300204672656530
:1036D00052544F535C7372635C7461736B732E63EB
:1036E000000000004572726F723A25732C25640D3C
:1036F0000A000000E400002010B500200249087014
:10370000FFF792FB10BD00008100002097E04C48BD
:103710000078062876D2DFE800F0033555696A8A1A
:103720004848408EC0F30E00032800DA86E0454882
:103730000078012802D0FEF70FF97FE04148407879
:10374000062803D108204049087008E03D48407829
:10375000032804D13B488078401D3B490870394814
:10376000408EC0F30E0038490978884200DA65E0DF
:103770003548027833493548FCF700FF01203049CD
:1037800008705BE030480078801E81B22F48FEF759
:103790000BF904462C480078401E2C49095C2A4845
:1037A0000078801E294A105C01EB0020A04203D162
:1037B00002202349087004E0FEF7CEF800202049DB
:1037C00008703BE02148407801280ED01F4840781F
:1037D000032803D104201A49087006E01B484078EA
:1037E000062802D105201649087027E026E0164871
:1037F00000781F2807D11A221449C91C1448FCF765
:10380000BDFE0EE019E010480078072809D10F48E6
:103810000079012802D10F49C87002E000200D494B
:10382000C870002006490870FEF796F806E00020F0
:1038300003490870FEF790F800E000BF00BF66E79C
:103840008100002050020020830000200A02002096
:10385000A20100207001002010B50E480078B8B118
:1038600000200C49087004210B48FDF733FB0220AF
:10387000FFF7E6FC08210948FFF7DEFA0220FFF710
:10388000DFFC04210448FDF723FB0220FFF7D8FCEE
:1038900010BD00007F0000200014014069000020DE
:1038A00010B50E480078B8B100200C49087004210A
:1038B0000B48FDF70FFB0220FFF7C2FC0821094867
:1038C000FFF7BAFA0220FFF7BBFC04210448FDF71A
:1038D000FFFA0220FFF7B4FC10BD00007D000020BD
:1038E000001401405500002032E01A48007830B141
:1038F00001281DD002281ED0032822D11EE0042159
:103900001548FDF7E7FA0220FFF79AFC0821134853
:10391000FFF792FA0220FFF793FC04210E48FDF70F
:10392000D7FA0220FFF78CFC1E20FFF789FC09E084
:10393000FDF7ECFF06E0FFF7B3FF03E0FFF78CFFB6
:1039400000E000BF00BFFFF789F91420FFF778FC03
:10395000CBE7000082000020001401400500002099
:103960001CB52248014609780191FF2102461170D9
:103970000146097800919DF8001001F050011C4AA1
:10398000117007211B4A116009E01A490968491E94
:10399000184A11609DF800104906090E00919DF823
:1039A000001001F080018029EFD012490968090256
:1039B000104A11601146098801F4E06111600B4A58
:1039C000019911700C48006840F470000A490860C1
:1039D0000846006840F070400860FFF799FB00203F
:1039E00006490860FCF72CFC00201CBD00E400E048
:1039F000DC000020E000002020ED00E0D8000020E6
:103A000010B500BF502080F31188BFF34F8FBFF374
:103A10006F8F00BF00F090FB18B14FF08050044949
:103A2000086000BF002080F3118800BF10BD0000B7
:103A300004ED00E02DE9F84305460E4690460DB131
:103A4000012000E0002028B94FF4C4720DA113A09A
:103A5000FCF752FC0EB9002701E005FB06F707F161
:103A60004C00FFF733F8044644B104F14C094346D7
:103A70004A46314628460094FEF784FC2046BDE8BD
:103A8000F88300004672656552544F535C7372634D
:103A90005C71756575652E63000000004572726F7C
:103AA000723A25732C25640D0A0000002DE9FF47AA
:103AB00082B005460E461F464FF0000A2C462CB930
:103AC00040F2DC4261A167A0FCF716FC0EB9206C45
:103AD00008B9012000E0002028B940F2DD425BA1D6
:103AE00060A0FCF709FC00F011FB08B9049808B9C4
:103AF000012000E0002028B94FF49C6253A159A096
:103B0000FCF7FAFB00BFFFF737FAD4F83890B9F1A9
:103B1000000F3DD0D4F80C8031462046FEF770FBF4
:103B2000DFB9A9F10100A063206810B9FFF774F8AC
:103B30006060206908B9012000E0002010BB04F19A
:103B4000100000F019FCE8B14FF0805049490860BE
:103B5000BFF34F8FBFF36F8F14E0C4F80C80606A1F
:103B600008B9012000E0002060B904F1240000F051
:103B700003FC38B14FF080503E490860BFF34F8FCF
:103B8000BFF36F8FFFF738FA012006B0BDE8F0876A
:103B9000049818B9FFF730FA0020F6E7BAF1000FE1
:103BA00004D16846FFF7CAFC4FF0010AFFF724FA78
:103BB000FFF744FDFFF7E0F994F94400401C10B909
:103BC000002084F8440094F94500401C10B90020FE
:103BD00084F84500FFF710FA04A9684600F014FACB
:103BE00040BB2046FEF7DCFCF0B1206830B9FFF79F
:103BF000C3F96068FFF74AFCFFF7FEF904F12400FF
:103C00000499FFF7E7FB2046FEF717FF00F010FCD2
:103C100000287FF478AF4FF0805016490860BFF35A
:103C20004F8FBFF36F8F6EE72046FEF706FF00F061
:103C3000FFFB68E72046FEF700FF00F0F9FB204697
:103C4000FEF7AEFC0028EED000209EE746726565C8
:103C500052544F535C7372635C71756575652E6366
:103C6000000000004572726F723A25732C25640DB6
:103C70000A00000004ED00E070B505460E462C4633
:103C80002CB940F21B121EA123A0FCF735FBFFF755
:103C900073F9D4E90F12206801FB02006060002074
:103CA000A0632068A060E06B401E226C216800FBCE
:103CB0000210E060FF2084F8440084F845009EB9BB
:103CC000206908B9012000E00020A8B904F1100023
:103CD00000F052FB80B14FF0805013490860BFF3F1
:103CE0004F8FBFF36F8F07E004F11000FFF70EF95D
:103CF00004F12400FFF70AF9FFF77EF9012070BDF7
:103D00004672656552544F535C7372635C7175659E
:103D100075652E63000000004572726F723A25735C
:103D20002C25640D0A00000004ED00E02DE9FF439E
:103D300083B0064688461D464FF0000934462CB92C
:103D400040F2D92260A166A0FCF7D6FAB8F1000FC4
:103D500001D1206C08B9012000E0002028B940F210
:103D6000DA2259A15EA0FCF7C7FA022D02D1E06B5E
:103D7000012801D1012000E0002028B940F2DB2217
:103D800051A157A0FCF7B8FA00F0C0F908B905989E
:103D900008B9012000E0002028B940F2DE224AA143
:103DA0004FA0FCF7A9FA00BFFFF7E6F8A06BE16BA4
:103DB000884201D3022D38D12A4641462046FEF7DB
:103DC00034FA0746A06C68B129462046FEF704FC89
:103DD00028B34FF0805046490860BFF34F8FBFF3C0
:103DE0006F8F1CE0606A08B9012000E0002068B90C
:103DF00004F1240000F0C0FA88B14FF080503C4933
:103E00000860BFF34F8FBFF36F8F08E03FB14FF0F3
:103E1000805037490860BFF34F8FBFF36F8FFFF7B4
:103E2000EBF8012007B0BDE8F083059818B9FFF75B
:103E3000E3F80020F6E7B9F1000F04D101A8FFF77D
:103E40007DFB4FF00109FFF7D7F8FFF7F7FBFFF70E
:103E500093F894F94400401C10B9002084F8440001
:103E600094F94500401C10B9002084F84500FFF784
:103E7000C3F805A901A800F0C7F8F0B92046FEF77D
:103E80009CFBA0B104F110000599FFF7A3FA2046AE
:103E9000FEF7D3FD00F0CCFA002885D14FF080501A
:103EA00013490860BFF34F8FBFF36F8F7CE7204645
:103EB000FEF7C3FD00F0BCFA76E72046FEF7BDFD35
:103EC00000F0B6FA0020ADE74672656552544F53D4
:103ED0005C7372635C71756575652E63000000002C
:103EE0004572726F723A25732C25640D0A0000002A
:103EF00004ED00E02DE9F05F80468A4615461E4637
:103F000044462CB940F29F3235A13BA0FCF7F4F9AE
:103F1000BAF1000F01D1206C08B9012000E00020A7
:103F200028B94FF468722EA133A0FCF7E5F9022EF0
:103F300002D1E06B012801D1012000E0002028B966
:103F400040F2A13226A12CA0FCF7D6F9FFF7F0F839
:103F500000BF5021EFF3118081F31188BFF34F8F21
:103F6000BFF36F8F00BF0746A06BE16B884201D3A0
:103F7000022E2BD194F945B0324651462046FEF729
:103F800054F90BF10100C8B9A06C40B1314620468C
:103F9000FEF722FBB8B1B5B10120286013E0606ADA
:103FA00008B9012000E0002068B904F1240000F005
:103FB000E3F940B13DB10120286004E00BF10100BC
:103FC00040B284F845004FF0010901E04FF00009CC
:103FD00000BF87F3118800BF4846BDE8F09F00008E
:103FE0004672656552544F535C7372635C717565BC
:103FF00075652E63000000004572726F723A25737A
:104000002C25640D0A0000002DE9F04104460D4600
:104010002CB940F6CB3219A11EA0FCF76DF92DB9D1
:1040200040F6CC3215A11BA0FCF766F9FEF7A4FF01
:104030001C4807682868401C08B9002619E01A497E
:1040400020680968884204D06068B84201D8012617
:104050000FE06068381A2968884209D228686168C8
:10406000791A401A28602046FFF768FA002600E017
:104070000126FEF7C1FF3046BDE8F0814672656556
:1040800052544F535C7372635C7461736B732E6331
:10409000000000004572726F723A25732C25640D82
:1040A0000A000000F80000200C0100202DE9FF4F5D
:1040B00085B0804689461746DDE912ABB800FEF7A9
:1040C00005FD064656B15420FEF700FD04460CB12E
:1040D000266304E03046FEF7C3FF00E000247CB115
:1040E0000020CDE900ABCDE902403A4649464046C2
:1040F000089BFEF75DF92046FDF7C4FF012501E0AE
:104100004FF0FF35284609B0BDE8F08F0549096832
:1041100009B9012005E00449096809B9022000E055
:1041200000207047000100201C01002001490868A0
:1041300070470000F80000202DE9F0414FF0000822
:1041400041480068002872D140480068451C3F483B
:104150000560EDB93E480068006808B9012000E03C
:10416000002028B940F6D9123AA140A0FCF7C4F8C3
:104170003748076841480068354908603F4807608C
:104180003F480068401C3E490860FEF787FB00BFBF
:104190003C48006885423CD300BF2D480068006859
:1041A00008B9012000E0002020B14FF0FF30354970
:1041B00008602DE026480068C068C4686668B5429B
:1041C00002D23048066023E0201DFEF78BFEA06A75
:1041D00018B104F11800FEF785FE94F82C100120A8
:1041E000884029490968084327490860E16A01EBCA
:1041F0008101264A02EB8100211DFEF7B1FE244910
:10420000E06A0968C96A8842C7D34FF00108C4E769
:1042100000BF1F480068C06A00EB80001B4951F8CE
:104220002000012801D94FF0010805E0FFE71948F7
:104230000068401C174908601748006808B14FF033
:1042400001084046BDE8F0811C010020F800002074
:10425000E80000204672656552544F535C737263E8
:104260005C7461736B732E63000000004572726FA3
:10427000723A25732C25640D0A000000EC00002022
:104280000C01002014010020FC000020A0430020AD
:10429000E4000020040100200801002070B505465C
:1042A0002C460026002D4BD026480068844201D1C0
:1042B000012000E0002028B940F6C76222A128A012
:1042C000FCF71AF8A06C28B940F6C9621EA124A018
:1042D000FCF712F8A06C401EA064616CE06A884292
:1042E0002ED0A06C60BB201DFEF7FCFD78B9E06A03
:1042F00000EB80001E4951F8200040B994F82C10C2
:10430000012088401B49096881431A480160606C9C
:10431000E062E06AC0F12000A06194F82C10012056
:10432000884014490968084312490860E16A01EBB2
:1043300081010F4A02EB8100211DFEF711FE0126CB
:10434000304670BDE40000204672656552544F53FC
:104350005C7372635C7461736B732E6300000000A6
:104360004572726F723A25732C25640D0A000000A5
:10437000A0430020FC00002070B50646F068C46829
:104380002CB940F661321AA11FA0FBF7B5FF04F16A
:104390001800FEF7A7FD20480068A8B9201DFEF709
:1043A000A1FD94F82C10012088401C49096808439D
:1043B0001A490860E16A01EB8101194A02EB8100A8
:1043C000211DFEF7CDFD04E004F118011548FEF7AC
:1043D000C7FD1549E06A0968C96A884204D9012500
:1043E00001201249086000E00025284670BD000049
:1043F0004672656552544F535C7372635C746173AB
:104400006B732E63000000004572726F723A257361
:104410002C25640D0A0000001C010020FC00002077
:10442000A043002048460020E400002008010020AE
:1044300070B5002400263448006828B94FF4FD62A6
:1044400032A138A0FBF758FFFEF796FD2E48006812
:10445000401E2D4908600846006800284FD13548A5
:10446000006800284BD024E03348C068C46804F1D9
:104470001800FEF737FD201DFEF734FD94F82C10D0
:10448000012088402D49096808432C490860E16AE9
:1044900001EB81012A4A02EB8100211DFEF760FD3C
:1044A0002849E06A0968C96A884202D3012026497E
:1044B00008602148006808B9012000E000200028B9
:1044C000D2D00CB1FEF7EAF92048056865B100BF0B
:1044D000FFF732FE10B101201B4908606D1E002D50
:1044E000F6D10020194908601748006838B1012644
:1044F000300717490860BFF34F8FBFF36F8FFEF788
:104500007BFD304670BD00001C01002046726565D1
:1045100052544F535C7372635C7461736B732E639C
:10452000000000004572726F723A25732C25640DED
:104530000A000000F400002048460020FC00002093
:10454000A0430020E4000020080100200401002016
:1045500004ED00E01CB50024FDF7EEFD0B480068FB
:1045600058B10B481F2100234FF48072CDE9001091
:1045700008A10A48FFF79AFD04462CB940F233120D
:1045800007A10DA0FBF7B8FE20461CBD28010020A6
:104590002C010020546D722053766300212A0008FC
:1045A0004672656552544F535C7372635C74696DF7
:1045B0006572732E630000004572726F723A257344
:1045C0002C25640D0A0000002DE9FF4704460D4626
:1045D00016461F46DDF830804FF000092CB94FF425
:1045E000D37217A11CA0FBF787FE1F48006810B309
:1045F000009501960294062D15DAFFF787FD022833
:1046000008D100234246694617480068FFF78EFB31
:10461000814610E000231A46694613480068FFF7F8
:1046200085FB814607E000233A4669460E4800684C
:10463000FFF760FC8146484604B0BDE8F087000003
:104640004672656552544F535C7372635C74696D56
:104650006572732E630000004572726F723A2573A3
:104660002C25640D0A0000002801002021F00042E2
:10467000A2F16052B2F5801F01F0004328BFD2F1D1
:104680007F6C0BD95FEA001C43EAC20242EB507018
:1046900018BF704728BF20F001007047B2F5801F97
:1046A000BCBF184670474FEA410C1CF5001F02D2F0
:1046B000084600F0D0BA70B500F0FCF800000089A0
:1046C000FFF7F6BF4FF00040A0F58000704749109B
:1046D00058BFC1F140415B1058BFC3F140438B420A
:1046E000EFF300807047000051EA030C17D41CF56B
:1046F000801F58BFBCF5801F00F10680994218BF8B
:10470000704708BF9042704707D711F5801F58BF08
:1047100013F5801F19D499427047894270471CF5E0
:10472000801F08D5BCF5801FF7D58B4218BF704796
:1047300008BF824270474FF4001C1CEB410F38BF8A
:104740001CEB430F01D28B42704770B500F0B2F8FA
:10475000922449004FF000514FF08053FFF7B7BF4C
:10476000DFF848C170B51CEA111E1EBF1CEA131504
:104770009EEA0C0F95EA0C0F00F06F8081EA0304AB
:1047800023EA4C134EEAD47E21EA4C1141F4801105
:1047900043F48013AE44A1FB024CA0FB0365AEF1D1
:1047A0007F7E361955EB0C05A1FB034C4CF1000341
:1047B000A0FB021C16EB0C06654153F100030942F5
:1047C00018BF46F0010613F4007F0BD14FEA033106
:1047D0004FEA0530340341EA155140EA16506FF0B4
:1047E00003020AE04FEAC3214FEAC520F40241EA7E
:1047F000555140EA56506FF0020202EB2E4201EB97
:10480000025585EACE710AD05FEA440C18BF24F045
:10481000004450F1000041F1000120EAD47040F260
:10482000FE7C624500D270BDA84214BF4FF08044A8
:104830004FF04044002E08BF0024BEF1806FA8BF97
:10484000A1F1C041BDE8704080F282804FF00000CD
:1048500001F1C04101F0004170479EEA0C0F0CEAE3
:10486000131518BF95EA0C0F06D04FF0000081EA2F
:10487000030E0EF0004170BD00F01CF88900013EEF
:1048800000F007B800F009B84FEA430C5FEA5C5C3F
:1048900008D081EA030100F05BB84FEA410C5FEAFF
:1048A0005C5CF6D14FF00000014970470000FF0743
:1048B0000000F87F0EF1020E2EF0030E5EF8046B7E
:1048C000364205D4012A43EB030515F5001F12D823
:1048D000012841EB010C1CF5001F0CD80ED14FEA4A
:1048E000D17C15F5001F0CEB4C0C0CF1020C08BF31
:1048F0004CEBD37C04E04FF0080C01E04FEAD37C92
:104900000CEB4C0526FA05F606F00706B6F1040C8A
:1049100006D20EEB860CBDE870404CF0010C6047EF
:10492000DFE80CF0090B02024FF000414FF00000ED
:10493000A1F5002170BD19461046012851EB010474
:1049400018BFD4F5001484BF002001F0004170BDF1
:104950000808A0F500114FEA3101704753EA010C35
:1049600017D41CF5801F58BFBCF5801F00F10680CE
:104970008B4218BF704708BF8242704707D713F5B4
:10498000801F58BF11F5801F19D48B4270479B427E
:1049900070471CF5801F08D5BCF5801FF7D59942DC
:1049A00018BF704708BF904270474FF4001C1CEBC3
:1049B000430F38BF1CEB410F01D2994270470FB42F
:1049C0000CBC03BCFFF7C1BE43004FEAD30C4FEA57
:1049D0003C0C43401FBF40070CF1605113F0FE4FE9
:1049E00070471CF0006F03D100200CF000417047AD
:1049F0000CF0004343EA507010B540EACC0000F0E0
:104A0000E4F800BF000000924FEA0001FFF7A0BFEA
:104A10004FF000414FF00000A1F500217047000069
:104A20004FF47F0C1CEAD0121EBF1CEAD11392EA8D
:104A30000C0F93EA0C0F00F0858090EA010F48BF3D
:104A400042F4807240F4000C41F400002CF07F41ED
:104A500020F07F4000B58142A2EB03020FF2081C58
:104A6000ACEB504EC0F100009EF800E04FEA4E0E55
:104A700000FB0EFC38BF49004FEA2C1C02F5FA027D
:104A80000CFB0EF34FEACE1E4FEA112C4FEAC12168
:104A90000EEB635E42EB22420EFB0CFC4FEA1C5312
:104AA00000FB03114FEA112C4FEA01310EFB0CFC05
:104AB0004FEADC4C00FB0C11C14228BF09184CEB3B
:104AC00003335DF804EB10EB410143EBC250B2F548
:104AD0007C0F38BF704729D512F0F00F1CBF00F1D2
:104AE000C04000F000407047008182838485868743
:104AF00088898B8C8D8E8F919293959697999A9C9D
:104B00009D9FA0A2A3A5A7A8AAACAEB0B2B3B5B70B
:104B1000B9BCBEC0C2C5C7C9CCCED1D4D7D9DCDFE1
:104B2000E2E6E9ECF0F3F7FAFE0000004FEA400C91
:104B30000CF1807CBCF17E4F28BF7047B0F1C040C3
:104B400000F089B890EA010F0CEAD11348BF42F493
:104B50008072624538BF634507D213F47F0F16D0C9
:104B600080EA010000F00040704710B500F02DF819
:104B7000097EFC3E00F005B880EA010000F000402C
:104B8000704780EA010000F0004000F064B812F4C1
:104B90007F0F04BF0248704780EA010000F05BB855
:104BA0000000C07FB0FA80F310FA03F2C3F19D0356
:104BB0000AD0D90501EB1220530638BF704700F127
:104BC000010008BF20F0010070470EF1020E2EF028
:104BD000030E5EF8044B244204D44FEA4102B2F1C2
:104BE0007F4F11D84FEA4003B3F17F4F0CD80ED15D
:104BF0004FEAD07CB2F17F4F0CEB4C0C0CF1020C65
:104C000008BF4CEBD17C04E04FF0080C01E04FEA08
:104C1000D17C0CEB4C0324FA03F404F00704B4F148
:104C2000040C06D20EEB840CBDE810404CF0010CD5
:104C30006047DFE80CF0070802024FF00040A0F5E3
:104C4000800010BD0846420018BFD2F1807288BFB4
:104C500000F0004010BDFF2141EAD050C005704770
:104C600000C1814001C0804101C0804100C181403C
:104C700001C0804100C1814000C1814001C080412C
:104C800001C0804100C1814000C1814001C080411C
:104C900000C1814001C0804101C0804100C181400C
:104CA00001C0804100C1814000C1814001C08041FC
:104CB00000C1814001C0804101C0804100C18140EC
:104CC00000C1814001C0804101C0804100C18140DC
:104CD00001C0804100C1814000C1814001C08041CC
:104CE00001C0804100C1814000C1814001C08041BC
:104CF00000C1814001C0804101C0804100C18140AC
:104D000000C1814001C0804101C0804100C181409B
:104D100001C0804100C1814000C1814001C080418B
:104D200000C1814001C0804101C0804100C181407B
:104D300001C0804100C1814000C1814001C080416B
:104D400001C0804100C1814000C1814001C080415B
:104D500000C1814001C0804101C0804100C181404B
:104D600000C0C101C30302C2C60607C705C5C4040B
:104D7000CC0C0DCD0FCFCE0E0ACACB0BC90908C87B
:104D8000D81819D91BDBDA1A1EDEDF1FDD1D1CDC6B
:104D900014D4D515D71716D6D21213D311D1D010DB
:104DA000F03031F133F3F23236F6F737F53534F4CB
:104DB0003CFCFD3DFF3F3EFEFA3A3BFB39F9F8383B
:104DC00028E8E929EB2B2AEAEE2E2FEF2DEDEC2C2B
:104DD000E42425E527E7E62622E2E323E12120E09B
:104DE000A06061A163A3A26266A6A767A56564A48B
:104DF0006CACAD6DAF6F6EAEAA6A6BAB69A9A868FB
:104E000078B8B979BB7B7ABABE7E7FBF7DBDBC7CEA
:104E1000B47475B577B7B67672B2B373B17170B05A
:104E2000509091519353529296565797559594544A
:104E30009C5C5D9D5F9F9E5E5A9A9B5B99595898BA
:104E4000884849894B8B8A4A4E8E8F4F8D4D4C8CAA
:104E5000448485458747468682424383418180401A
:104E600000C1814001C0804101C0804100C181403A
:104E700001C0804100C1814000C1814001C080412A
:104E800001C0804100C1814000C1814001C080411A
:104E900000C1814001C0804101C0804100C181400A
:104EA00001C0804100C1814000C1814001C08041FA
:104EB00000C1814001C0804101C0804100C18140EA
:104EC00000C1814001C0804101C0804100C18140DA
:104ED00001C0804100C1814000C1814001C08041CA
:104EE00001C0804100C1814000C1814001C08041BA
:104EF00000C1814001C0804101C0804100C18140AA
:104F000000C1814001C0804101C0804100C1814099
:104F100001C0804100C1814000C1814001C0804189
:104F200000C1814001C0804101C0804100C1814079
:104F300001C0804100C1814000C1814001C0804169
:104F400001C0804100C1814000C1814001C0804159
:104F500000C1814001C0804101C0804100C1814049
:104F600000C0C101C30302C2C60607C705C5C40409
:104F7000CC0C0DCD0FCFCE0E0ACACB0BC90908C879
:104F8000D81819D91BDBDA1A1EDEDF1FDD1D1CDC69
:104F900014D4D515D71716D6D21213D311D1D010D9
:104FA000F03031F133F3F23236F6F737F53534F4C9
:104FB0003CFCFD3DFF3F3EFEFA3A3BFB39F9F83839
:104FC00028E8E929EB2B2AEAEE2E2FEF2DEDEC2C29
:104FD000E42425E527E7E62622E2E323E12120E099
:104FE000A06061A163A3A26266A6A767A56564A489
:104FF0006CACAD6DAF6F6EAEAA6A6BAB69A9A868F9
:1050000078B8B979BB7B7ABABE7E7FBF7DBDBC7CE8
:10501000B47475B577B7B67672B2B373B17170B058
:105020005090915193535292965657975595945448
:105030009C5C5D9D5F9F9E5E5A9A9B5B99595898B8
:10504000884849894B8B8A4A4E8E8F4F8D4D4C8CA8
:105050004484854587474686824243834181804018
:105060000400000800000000000000020001000031
:1050700010000000945000080000002034010000DF
:105080006C010008DC50000834010020DC4B0000FB
:10509000C80100085124010310C40D80CF1C010376
:1050A0003005BB8B0A1412061202FC02A9CB1411A4
:1050B000DA28281A2005FB43CA1404280542097C73
:1050C000A24A043B3F0203040607083B290C69106F
:0C50D0000518020406081AAA0101580085
:0400000508000131BD
:00000001FF
